01                        Name                       surname                    patronymic                       address
02000001000000002000PLN                                                                                                    
02000002000000012000PLN                                                                                                    
02000003000000022000PLN                                                                                                    
02000004000000032000PLN                                                                                                    
02000005000000042000PLN                                                                                                    
02000006000000421235PLN                                                                                                    
02000007000000414259PLN                                                                                                    
02000008000000072000PLN                                                                                                    
02000009000000042487PLN                                                                                                    
02000010000000092000PLN                                                                                                    
02000011000000102000PLN                                                                                                    
02000012000000005353EUR                                                                                                    
03000012000001259334                                                                                            reserved
